{
  "contractName": "Voting",
  "abi": [
    {
      "inputs": [
        {
          "internalType": "string[]",
          "name": "candidateNames",
          "type": "string[]"
        }
      ],
      "stateMutability": "nonpayable",
      "type": "constructor"
    },
    {
      "anonymous": false,
      "inputs": [
        {
          "indexed": true,
          "internalType": "address",
          "name": "voter",
          "type": "address"
        },
        {
          "indexed": false,
          "internalType": "string",
          "name": "candidate",
          "type": "string"
        }
      ],
      "name": "VoteCast",
      "type": "event"
    },
    {
      "anonymous": false,
      "inputs": [
        {
          "indexed": true,
          "internalType": "address",
          "name": "voter",
          "type": "address"
        }
      ],
      "name": "VoterRegistered",
      "type": "event"
    },
    {
      "inputs": [],
      "name": "admin",
      "outputs": [
        {
          "internalType": "address",
          "name": "",
          "type": "address"
        }
      ],
      "stateMutability": "view",
      "type": "function",
      "constant": true
    },
    {
      "inputs": [
        {
          "internalType": "uint256",
          "name": "",
          "type": "uint256"
        }
      ],
      "name": "candidates",
      "outputs": [
        {
          "internalType": "string",
          "name": "name",
          "type": "string"
        },
        {
          "internalType": "uint256",
          "name": "voteCount",
          "type": "uint256"
        }
      ],
      "stateMutability": "view",
      "type": "function",
      "constant": true
    },
    {
      "inputs": [
        {
          "internalType": "address",
          "name": "",
          "type": "address"
        }
      ],
      "name": "hasVoted",
      "outputs": [
        {
          "internalType": "bool",
          "name": "",
          "type": "bool"
        }
      ],
      "stateMutability": "view",
      "type": "function",
      "constant": true
    },
    {
      "inputs": [
        {
          "internalType": "address",
          "name": "",
          "type": "address"
        }
      ],
      "name": "isRegistered",
      "outputs": [
        {
          "internalType": "bool",
          "name": "",
          "type": "bool"
        }
      ],
      "stateMutability": "view",
      "type": "function",
      "constant": true
    },
    {
      "inputs": [
        {
          "internalType": "address",
          "name": "_voter",
          "type": "address"
        }
      ],
      "name": "registerVoter",
      "outputs": [],
      "stateMutability": "nonpayable",
      "type": "function"
    },
    {
      "inputs": [
        {
          "internalType": "string",
          "name": "_candidate",
          "type": "string"
        }
      ],
      "name": "vote",
      "outputs": [],
      "stateMutability": "nonpayable",
      "type": "function"
    },
    {
      "inputs": [],
      "name": "getAllCandidates",
      "outputs": [
        {
          "internalType": "string[]",
          "name": "",
          "type": "string[]"
        }
      ],
      "stateMutability": "view",
      "type": "function",
      "constant": true
    },
    {
      "inputs": [
        {
          "internalType": "string",
          "name": "_candidate",
          "type": "string"
        }
      ],
      "name": "getVotes",
      "outputs": [
        {
          "internalType": "uint256",
          "name": "",
          "type": "uint256"
        }
      ],
      "stateMutability": "view",
      "type": "function",
      "constant": true
    }
  ],
  "bytecode": "0x608060405234801562000010575f80fd5b5060405162001b0238038062001b02833981810160405281019062000036919062000398565b335f806101000a81548173ffffffffffffffffffffffffffffffffffffffff021916908373ffffffffffffffffffffffffffffffffffffffff1602179055505f5b8151811015620001135760036040518060400160405280848481518110620000a457620000a3620003e7565b5b602002602001015181526020015f815250908060018154018082558091505060019003905f5260205f2090600202015f909190919091505f820151815f019081620000f091906200064b565b5060208201518160010155505080806200010a906200075c565b91505062000077565b5050620007a8565b5f604051905090565b5f80fd5b5f80fd5b5f80fd5b5f601f19601f8301169050919050565b7f4e487b71000000000000000000000000000000000000000000000000000000005f52604160045260245ffd5b620001788262000130565b810181811067ffffffffffffffff821117156200019a576200019962000140565b5b80604052505050565b5f620001ae6200011b565b9050620001bc82826200016d565b919050565b5f67ffffffffffffffff821115620001de57620001dd62000140565b5b602082029050602081019050919050565b5f80fd5b5f80fd5b5f67ffffffffffffffff82111562000214576200021362000140565b5b6200021f8262000130565b9050602081019050919050565b5f5b838110156200024b5780820151818401526020810190506200022e565b5f8484015250505050565b5f6200026c6200026684620001f7565b620001a3565b9050828152602081018484840111156200028b576200028a620001f3565b5b620002988482856200022c565b509392505050565b5f82601f830112620002b757620002b66200012c565b5b8151620002c984826020860162000256565b91505092915050565b5f620002e8620002e284620001c1565b620001a3565b905080838252602082019050602084028301858111156200030e576200030d620001ef565b5b835b818110156200035c57805167ffffffffffffffff8111156200033757620003366200012c565b5b808601620003468982620002a0565b8552602085019450505060208101905062000310565b5050509392505050565b5f82601f8301126200037d576200037c6200012c565b5b81516200038f848260208601620002d2565b91505092915050565b5f60208284031215620003b057620003af62000124565b5b5f82015167ffffffffffffffff811115620003d057620003cf62000128565b5b620003de8482850162000366565b91505092915050565b7f4e487b71000000000000000000000000000000000000000000000000000000005f52603260045260245ffd5b5f81519050919050565b7f4e487b71000000000000000000000000000000000000000000000000000000005f52602260045260245ffd5b5f60028204905060018216806200046357607f821691505b6020821081036200047957620004786200041e565b5b50919050565b5f819050815f5260205f209050919050565b5f6020601f8301049050919050565b5f82821b905092915050565b5f60088302620004dd7fffffffffffffffffffffffffffffffffffffffffffffffffffffffffffffffff82620004a0565b620004e98683620004a0565b95508019841693508086168417925050509392505050565b5f819050919050565b5f819050919050565b5f620005336200052d620005278462000501565b6200050a565b62000501565b9050919050565b5f819050919050565b6200054e8362000513565b620005666200055d826200053a565b848454620004ac565b825550505050565b5f90565b6200057c6200056e565b6200058981848462000543565b505050565b5b81811015620005b057620005a45f8262000572565b6001810190506200058f565b5050565b601f821115620005ff57620005c9816200047f565b620005d48462000491565b81016020851015620005e4578190505b620005fc620005f38562000491565b8301826200058e565b50505b505050565b5f82821c905092915050565b5f620006215f198460080262000604565b1980831691505092915050565b5f6200063b838362000610565b9150826002028217905092915050565b620006568262000414565b67ffffffffffffffff81111562000672576200067162000140565b5b6200067e82546200044b565b6200068b828285620005b4565b5f60209050601f831160018114620006c1575f8415620006ac578287015190505b620006b885826200062e565b86555062000727565b601f198416620006d1866200047f565b5f5b82811015620006fa57848901518255600182019150602085019450602081019050620006d3565b868310156200071a578489015162000716601f89168262000610565b8355505b6001600288020188555050505b505050505050565b7f4e487b71000000000000000000000000000000000000000000000000000000005f52601160045260245ffd5b5f620007688262000501565b91507fffffffffffffffffffffffffffffffffffffffffffffffffffffffffffffffff82036200079d576200079c6200072f565b5b600182019050919050565b61134c80620007b65f395ff3fe608060405234801561000f575f80fd5b5060043610610086575f3560e01c8063805265e511610059578063805265e514610125578063c3c5a54714610155578063f851a44014610185578063fc36e15b146101a357610086565b806309eef43e1461008a5780632e6997fe146100ba5780633477ee2e146100d857806338db6dd314610109575b5f80fd5b6100a4600480360381019061009f9190610a10565b6101bf565b6040516100b19190610a55565b60405180910390f35b6100c26101dc565b6040516100cf9190610bb3565b60405180910390f35b6100f260048036038101906100ed9190610c06565b610325565b604051610100929190610c88565b60405180910390f35b610123600480360381019061011e9190610a10565b6103da565b005b61013f600480360381019061013a9190610de2565b61058b565b60405161014c9190610e29565b60405180910390f35b61016f600480360381019061016a9190610a10565b610692565b60405161017c9190610a55565b60405180910390f35b61018d6106af565b60405161019a9190610e51565b60405180910390f35b6101bd60048036038101906101b89190610de2565b6106d2565b005b6002602052805f5260405f205f915054906101000a900460ff1681565b60605f60038054905067ffffffffffffffff8111156101fe576101fd610cbe565b5b60405190808252806020026020018201604052801561023157816020015b606081526020019060019003908161021c5790505b5090505f5b60038054905081101561031d576003818154811061025757610256610e6a565b5b905f5260205f2090600202015f01805461027090610ec4565b80601f016020809104026020016040519081016040528092919081815260200182805461029c90610ec4565b80156102e75780601f106102be576101008083540402835291602001916102e7565b820191905f5260205f20905b8154815290600101906020018083116102ca57829003601f168201915b50505050508282815181106102ff576102fe610e6a565b5b6020026020010181905250808061031590610f21565b915050610236565b508091505090565b60038181548110610334575f80fd5b905f5260205f2090600202015f91509050805f01805461035390610ec4565b80601f016020809104026020016040519081016040528092919081815260200182805461037f90610ec4565b80156103ca5780601f106103a1576101008083540402835291602001916103ca565b820191905f5260205f20905b8154815290600101906020018083116103ad57829003601f168201915b5050505050908060010154905082565b5f8054906101000a900473ffffffffffffffffffffffffffffffffffffffff1673ffffffffffffffffffffffffffffffffffffffff163373ffffffffffffffffffffffffffffffffffffffff1614610467576040517f08c379a000000000000000000000000000000000000000000000000000000000815260040161045e90610fd8565b60405180910390fd5b60015f8273ffffffffffffffffffffffffffffffffffffffff1673ffffffffffffffffffffffffffffffffffffffff1681526020019081526020015f205f9054906101000a900460ff16156104f1576040517f08c379a00000000000000000000000000000000000000000000000000000000081526004016104e890611040565b60405180910390fd5b6001805f8373ffffffffffffffffffffffffffffffffffffffff1673ffffffffffffffffffffffffffffffffffffffff1681526020019081526020015f205f6101000a81548160ff0219169083151502179055508073ffffffffffffffffffffffffffffffffffffffff167fb6be2187d059cc2a55fe29e0e503b566e1e0f8c8780096e185429350acffd3dd60405160405180910390a250565b5f805f90505b60038054905081101561065157826040516020016105af9190611098565b60405160208183030381529060405280519060200120600382815481106105d9576105d8610e6a565b5b905f5260205f2090600202015f016040516020016105f79190611140565b604051602081830303815290604052805190602001200361063e576003818154811061062657610625610e6a565b5b905f5260205f2090600202016001015491505061068d565b808061064990610f21565b915050610591565b506040517f08c379a0000000000000000000000000000000000000000000000000000000008152600401610684906111a0565b60405180910390fd5b919050565b6001602052805f5260405f205f915054906101000a900460ff1681565b5f8054906101000a900473ffffffffffffffffffffffffffffffffffffffff1681565b60015f3373ffffffffffffffffffffffffffffffffffffffff1673ffffffffffffffffffffffffffffffffffffffff1681526020019081526020015f205f9054906101000a900460ff1661075b576040517f08c379a000000000000000000000000000000000000000000000000000000000815260040161075290611208565b60405180910390fd5b60025f3373ffffffffffffffffffffffffffffffffffffffff1673ffffffffffffffffffffffffffffffffffffffff1681526020019081526020015f205f9054906101000a900460ff16156107e5576040517f08c379a00000000000000000000000000000000000000000000000000000000081526004016107dc90611270565b60405180910390fd5b5f805b6003805490508110156108bd57826040516020016108069190611098565b60405160208183030381529060405280519060200120600382815481106108305761082f610e6a565b5b905f5260205f2090600202015f0160405160200161084e9190611140565b60405160208183030381529060405280519060200120036108aa576003818154811061087d5761087c610e6a565b5b905f5260205f2090600202016001015f81548092919061089c90610f21565b9190505550600191506108bd565b80806108b590610f21565b9150506107e8565b50806108fe576040517f08c379a00000000000000000000000000000000000000000000000000000000081526004016108f5906112d8565b60405180910390fd5b600160025f3373ffffffffffffffffffffffffffffffffffffffff1673ffffffffffffffffffffffffffffffffffffffff1681526020019081526020015f205f6101000a81548160ff0219169083151502179055503373ffffffffffffffffffffffffffffffffffffffff167f866dc605853954ffa419910eb05d67f430efec2e7db7ce135bf55565667a4ab48360405161099991906112f6565b60405180910390a25050565b5f604051905090565b5f80fd5b5f80fd5b5f73ffffffffffffffffffffffffffffffffffffffff82169050919050565b5f6109df826109b6565b9050919050565b6109ef816109d5565b81146109f9575f80fd5b50565b5f81359050610a0a816109e6565b92915050565b5f60208284031215610a2557610a246109ae565b5b5f610a32848285016109fc565b91505092915050565b5f8115159050919050565b610a4f81610a3b565b82525050565b5f602082019050610a685f830184610a46565b92915050565b5f81519050919050565b5f82825260208201905092915050565b5f819050602082019050919050565b5f81519050919050565b5f82825260208201905092915050565b5f5b83811015610ace578082015181840152602081019050610ab3565b5f8484015250505050565b5f601f19601f8301169050919050565b5f610af382610a97565b610afd8185610aa1565b9350610b0d818560208601610ab1565b610b1681610ad9565b840191505092915050565b5f610b2c8383610ae9565b905092915050565b5f602082019050919050565b5f610b4a82610a6e565b610b548185610a78565b935083602082028501610b6685610a88565b805f5b85811015610ba15784840389528151610b828582610b21565b9450610b8d83610b34565b925060208a01995050600181019050610b69565b50829750879550505050505092915050565b5f6020820190508181035f830152610bcb8184610b40565b905092915050565b5f819050919050565b610be581610bd3565b8114610bef575f80fd5b50565b5f81359050610c0081610bdc565b92915050565b5f60208284031215610c1b57610c1a6109ae565b5b5f610c2884828501610bf2565b91505092915050565b5f82825260208201905092915050565b5f610c4b82610a97565b610c558185610c31565b9350610c65818560208601610ab1565b610c6e81610ad9565b840191505092915050565b610c8281610bd3565b82525050565b5f6040820190508181035f830152610ca08185610c41565b9050610caf6020830184610c79565b9392505050565b5f80fd5b5f80fd5b7f4e487b71000000000000000000000000000000000000000000000000000000005f52604160045260245ffd5b610cf482610ad9565b810181811067ffffffffffffffff82111715610d1357610d12610cbe565b5b80604052505050565b5f610d256109a5565b9050610d318282610ceb565b919050565b5f67ffffffffffffffff821115610d5057610d4f610cbe565b5b610d5982610ad9565b9050602081019050919050565b828183375f83830152505050565b5f610d86610d8184610d36565b610d1c565b905082815260208101848484011115610da257610da1610cba565b5b610dad848285610d66565b509392505050565b5f82601f830112610dc957610dc8610cb6565b5b8135610dd9848260208601610d74565b91505092915050565b5f60208284031215610df757610df66109ae565b5b5f82013567ffffffffffffffff811115610e1457610e136109b2565b5b610e2084828501610db5565b91505092915050565b5f602082019050610e3c5f830184610c79565b92915050565b610e4b816109d5565b82525050565b5f602082019050610e645f830184610e42565b92915050565b7f4e487b71000000000000000000000000000000000000000000000000000000005f52603260045260245ffd5b7f4e487b71000000000000000000000000000000000000000000000000000000005f52602260045260245ffd5b5f6002820490506001821680610edb57607f821691505b602082108103610eee57610eed610e97565b5b50919050565b7f4e487b71000000000000000000000000000000000000000000000000000000005f52601160045260245ffd5b5f610f2b82610bd3565b91507fffffffffffffffffffffffffffffffffffffffffffffffffffffffffffffffff8203610f5d57610f5c610ef4565b5b600182019050919050565b7f4f6e6c792061646d696e2063616e20706572666f726d207468697320616374695f8201527f6f6e2e0000000000000000000000000000000000000000000000000000000000602082015250565b5f610fc2602383610c31565b9150610fcd82610f68565b604082019050919050565b5f6020820190508181035f830152610fef81610fb6565b9050919050565b7f566f74657220697320616c726561647920726567697374657265642e000000005f82015250565b5f61102a601c83610c31565b915061103582610ff6565b602082019050919050565b5f6020820190508181035f8301526110578161101e565b9050919050565b5f81905092915050565b5f61107282610a97565b61107c818561105e565b935061108c818560208601610ab1565b80840191505092915050565b5f6110a38284611068565b915081905092915050565b5f819050815f5260205f209050919050565b5f81546110cc81610ec4565b6110d6818661105e565b9450600182165f81146110f0576001811461110557611137565b60ff1983168652811515820286019350611137565b61110e856110ae565b5f5b8381101561112f57815481890152600182019150602081019050611110565b838801955050505b50505092915050565b5f61114b82846110c0565b915081905092915050565b7f43616e646964617465206e6f7420666f756e642e0000000000000000000000005f82015250565b5f61118a601483610c31565b915061119582611156565b602082019050919050565b5f6020820190508181035f8301526111b78161117e565b9050919050565b7f596f75206d757374206265207265676973746572656420746f20766f74652e005f82015250565b5f6111f2601f83610c31565b91506111fd826111be565b602082019050919050565b5f6020820190508181035f83015261121f816111e6565b9050919050565b7f596f75206861766520616c726561647920766f7465642e0000000000000000005f82015250565b5f61125a601783610c31565b915061126582611226565b602082019050919050565b5f6020820190508181035f8301526112878161124e565b9050919050565b7f496e76616c69642063616e6469646174652e00000000000000000000000000005f82015250565b5f6112c2601283610c31565b91506112cd8261128e565b602082019050919050565b5f6020820190508181035f8301526112ef816112b6565b9050919050565b5f6020820190508181035f83015261130e8184610c41565b90509291505056fea26469706673582212202f8162cf24dc96a186b810f2574b2a94a96b772888bb197e756a2e8376ef6fbf64736f6c63430008150033",
  "immutableReferences": {},
  "source": "// SPDX-License-Identifier: MIT\r\npragma solidity ^0.8.0;\r\n\r\ncontract Voting {\r\n    struct Candidate {\r\n        string name;\r\n        uint256 voteCount;\r\n    }\r\n\r\n    address public admin;\r\n    mapping(address => bool) public isRegistered;\r\n    mapping(address => bool) public hasVoted;\r\n    Candidate[] public candidates;\r\n\r\n    event VoterRegistered(address indexed voter);\r\n    event VoteCast(address indexed voter, string candidate);\r\n\r\n    constructor(string[] memory candidateNames) {\r\n        admin = msg.sender;\r\n        for (uint256 i = 0; i < candidateNames.length; i++) {\r\n            candidates.push(Candidate({name: candidateNames[i], voteCount: 0}));\r\n        }\r\n    }\r\n\r\n    modifier onlyAdmin() {\r\n        require(msg.sender == admin, \"Only admin can perform this action.\");\r\n        _;\r\n    }\r\n\r\n    function registerVoter(address _voter) public onlyAdmin {\r\n        require(!isRegistered[_voter], \"Voter is already registered.\");\r\n        isRegistered[_voter] = true;\r\n        emit VoterRegistered(_voter);\r\n    }\r\n\r\n    function vote(string memory _candidate) public {\r\n        require(isRegistered[msg.sender], \"You must be registered to vote.\");\r\n        require(!hasVoted[msg.sender], \"You have already voted.\");\r\n\r\n        bool candidateFound = false;\r\n        for (uint256 i = 0; i < candidates.length; i++) {\r\n            if (keccak256(abi.encodePacked(candidates[i].name)) == keccak256(abi.encodePacked(_candidate))) {\r\n                candidates[i].voteCount++;\r\n                candidateFound = true;\r\n                break;\r\n            }\r\n        }\r\n\r\n        require(candidateFound, \"Invalid candidate.\");\r\n        hasVoted[msg.sender] = true;\r\n        emit VoteCast(msg.sender, _candidate);\r\n    }\r\n\r\n    function getAllCandidates() public view returns (string[] memory) {\r\n        string[] memory names = new string[](candidates.length);\r\n        for (uint256 i = 0; i < candidates.length; i++) {\r\n            names[i] = candidates[i].name;\r\n        }\r\n        return names;\r\n    }\r\n\r\n    function getVotes(string memory _candidate) public view returns (uint256) {\r\n        for (uint256 i = 0; i < candidates.length; i++) {\r\n            if (keccak256(abi.encodePacked(candidates[i].name)) == keccak256(abi.encodePacked(_candidate))) {\r\n                return candidates[i].voteCount;\r\n            }\r\n        }\r\n        revert(\"Candidate not found.\");\r\n    }\r\n}\r\n",
  "sourcePath": "C:\\Users\\Admin\\blockchain-voting\\contracts\\Voting.sol",
  "compiler": {
    "name": "solc",
    "version": "0.8.21+commit.d9974bed.Emscripten.clang"
  },
  "schemaVersion": "3.4.16",
  "updatedAt": "2025-01-14T16:23:15.787Z",
  "networkType": "ethereum",
  "devdoc": {
    "kind": "dev",
    "methods": {},
    "version": 1
  },
  "userdoc": {
    "kind": "user",
    "methods": {},
    "version": 1
  }
}